{
  "_format": "hh-sol-artifact-1",
  "contractName": "DistributionContract",
  "sourceName": "contracts/DistributionContract.sol",
  "abi": [
    {
      "anonymous": false,
      "inputs": [
        {
          "indexed": false,
          "internalType": "bool",
          "name": "",
          "type": "bool"
        },
        {
          "indexed": false,
          "internalType": "bytes",
          "name": "",
          "type": "bytes"
        }
      ],
      "name": "CallResponseEvent",
      "type": "event"
    },
    {
      "anonymous": false,
      "inputs": [
        {
          "indexed": false,
          "internalType": "int256",
          "name": "responseCode",
          "type": "int256"
        }
      ],
      "name": "ResponseCode",
      "type": "event"
    },
    {
      "stateMutability": "payable",
      "type": "fallback"
    },
    {
      "inputs": [],
      "name": "claim",
      "outputs": [],
      "stateMutability": "nonpayable",
      "type": "function"
    },
    {
      "inputs": [
        {
          "internalType": "bytes4",
          "name": "selector",
          "type": "bytes4"
        },
        {
          "internalType": "address",
          "name": "impl",
          "type": "address"
        }
      ],
      "name": "extend",
      "outputs": [],
      "stateMutability": "nonpayable",
      "type": "function"
    },
    {
      "inputs": [
        {
          "internalType": "bytes4",
          "name": "selector",
          "type": "bytes4"
        }
      ],
      "name": "getFunctionImplementation",
      "outputs": [
        {
          "internalType": "address",
          "name": "impl",
          "type": "address"
        }
      ],
      "stateMutability": "view",
      "type": "function"
    },
    {
      "inputs": [
        {
          "components": [
            {
              "internalType": "bytes32[]",
              "name": "merkleProof",
              "type": "bytes32[]"
            },
            {
              "internalType": "contract IERC20",
              "name": "paymentToken",
              "type": "address"
            }
          ],
          "internalType": "struct GetNFTParams",
          "name": "params",
          "type": "tuple"
        }
      ],
      "name": "getNFT",
      "outputs": [],
      "stateMutability": "payable",
      "type": "function"
    },
    {
      "inputs": [],
      "name": "getSClaimingPreviewImageURL",
      "outputs": [
        {
          "internalType": "string",
          "name": "",
          "type": "string"
        }
      ],
      "stateMutability": "view",
      "type": "function"
    },
    {
      "inputs": [],
      "name": "getSLeftToDistribute",
      "outputs": [
        {
          "internalType": "uint256",
          "name": "",
          "type": "uint256"
        }
      ],
      "stateMutability": "view",
      "type": "function"
    },
    {
      "inputs": [],
      "name": "getSNFTSDistributed",
      "outputs": [
        {
          "internalType": "uint256",
          "name": "",
          "type": "uint256"
        }
      ],
      "stateMutability": "view",
      "type": "function"
    },
    {
      "inputs": [],
      "name": "getSNFTToDistributeAddress",
      "outputs": [
        {
          "internalType": "address",
          "name": "",
          "type": "address"
        }
      ],
      "stateMutability": "view",
      "type": "function"
    },
    {
      "inputs": [
        {
          "components": [
            {
              "internalType": "address",
              "name": "owner",
              "type": "address"
            },
            {
              "internalType": "address",
              "name": "treasury",
              "type": "address"
            },
            {
              "internalType": "address",
              "name": "nftTreasury",
              "type": "address"
            },
            {
              "internalType": "string",
              "name": "claimingPreviewImageURL",
              "type": "string"
            },
            {
              "internalType": "bool",
              "name": "shouldUseTransferFrom",
              "type": "bool"
            },
            {
              "internalType": "int64",
              "name": "startSerialNumber",
              "type": "int64"
            },
            {
              "internalType": "int64",
              "name": "endSerialNumber",
              "type": "int64"
            },
            {
              "internalType": "address",
              "name": "serialNumberGenerator",
              "type": "address"
            },
            {
              "internalType": "contract IERC721Enumerable",
              "name": "nftToDistribute",
              "type": "address"
            },
            {
              "internalType": "bytes32",
              "name": "allowListMerkleRoot",
              "type": "bytes32"
            },
            {
              "internalType": "address[]",
              "name": "validationGates",
              "type": "address[]"
            },
            {
              "internalType": "bool",
              "name": "enablePayment",
              "type": "bool"
            },
            {
              "internalType": "address",
              "name": "paymentModule",
              "type": "address"
            },
            {
              "internalType": "uint256",
              "name": "startTimestamp",
              "type": "uint256"
            },
            {
              "internalType": "uint256",
              "name": "endTimestamp",
              "type": "uint256"
            },
            {
              "internalType": "uint256",
              "name": "mintLimitPerWallet",
              "type": "uint256"
            },
            {
              "internalType": "contract IERC721[]",
              "name": "requiredNFTAddresses",
              "type": "address[]"
            },
            {
              "internalType": "contract IERC20[]",
              "name": "requiredFTAddresses",
              "type": "address[]"
            }
          ],
          "internalType": "struct AppLib.AppConfig",
          "name": "_config",
          "type": "tuple"
        }
      ],
      "name": "initialize",
      "outputs": [],
      "stateMutability": "nonpayable",
      "type": "function"
    },
    {
      "inputs": [
        {
          "internalType": "address",
          "name": "token",
          "type": "address"
        },
        {
          "internalType": "bytes",
          "name": "encodedFunctionSelector",
          "type": "bytes"
        }
      ],
      "name": "redirectForToken",
      "outputs": [],
      "stateMutability": "nonpayable",
      "type": "function"
    },
    {
      "inputs": [
        {
          "internalType": "string",
          "name": "newPreviewURL",
          "type": "string"
        }
      ],
      "name": "setSClaimingPreviewImageURL",
      "outputs": [],
      "stateMutability": "nonpayable",
      "type": "function"
    },
    {
      "inputs": [
        {
          "internalType": "address",
          "name": "token",
          "type": "address"
        },
        {
          "internalType": "address",
          "name": "from",
          "type": "address"
        },
        {
          "internalType": "address",
          "name": "to",
          "type": "address"
        },
        {
          "internalType": "uint256",
          "name": "amount",
          "type": "uint256"
        }
      ],
      "name": "transferFrom",
      "outputs": [
        {
          "internalType": "int64",
          "name": "responseCode",
          "type": "int64"
        }
      ],
      "stateMutability": "nonpayable",
      "type": "function"
    },
    {
      "inputs": [
        {
          "internalType": "address",
          "name": "token",
          "type": "address"
        },
        {
          "internalType": "address",
          "name": "from",
          "type": "address"
        },
        {
          "internalType": "address",
          "name": "to",
          "type": "address"
        },
        {
          "internalType": "uint256",
          "name": "serialNumber",
          "type": "uint256"
        }
      ],
      "name": "transferFromNFT",
      "outputs": [
        {
          "internalType": "int64",
          "name": "responseCode",
          "type": "int64"
        }
      ],
      "stateMutability": "nonpayable",
      "type": "function"
    }
  ],
  "bytecode": "0x608060405234801561001057600080fd5b50612111806100206000396000f3fe6080604052600436106100d25760003560e01c80636eb224cb1161007f5780639b23d3d9116100595780639b23d3d9146103e9578063aebdc6d714610409578063d37eb91b14610429578063e88a643914610449576100d2565b80636eb224cb146103575780637df4730e14610377578063972fdd26146103a9576100d2565b80634e71d92d116100b05780634e71d92d146102fa5780635f303dce14610311578063618dc65e14610337576100d2565b806315dacbea14610270578063358ffe7b146102a857806341cb279c146102d8575b6000610118600080368080601f016020809104026020016040519081016040528093929190818152602001838380828437600092019190915250929392505061045c9050565b90506000610145826001600160e01b0319166000908152602081905260409020546001600160a01b031690565b90506001600160a01b0381166101b15760405162461bcd60e51b815260206004820152602660248201527f46756e6374696f6e20696d706c656d656e746174696f6e20646f6573206e6f7460448201526508195e1a5cdd60d21b60648201526084015b60405180910390fd5b600080826001600160a01b03166000366040516101cf92919061165f565b600060405180830381855af49150503d806000811461020a576040519150601f19603f3d011682016040523d82523d6000602084013e61020f565b606091505b5091509150816102615760405162461bcd60e51b815260206004820152601660248201527f4661696c20647572696e672070726f78792063616c6c0000000000000000000060448201526064016101a8565b61026a8161049b565b50505050005b34801561027c57600080fd5b5061029061028b366004611694565b6104a3565b60405160079190910b81526020015b60405180910390f35b3480156102b457600080fd5b50600654600160401b900467ffffffffffffffff165b60405190815260200161029f565b3480156102e457600080fd5b506102ed610597565b60405161029f9190611741565b34801561030657600080fd5b5061030f61062c565b005b34801561031d57600080fd5b50600654600160801b900467ffffffffffffffff166102ca565b34801561034357600080fd5b5061030f610352366004611847565b610684565b34801561036357600080fd5b5061030f6103723660046118c3565b610772565b34801561038357600080fd5b50600e546001600160a01b03165b6040516001600160a01b03909116815260200161029f565b3480156103b557600080fd5b506103916103c43660046118fa565b6001600160e01b0319166000908152602081905260409020546001600160a01b031690565b3480156103f557600080fd5b50610290610404366004611694565b6107c1565b34801561041557600080fd5b5061030f610424366004611a64565b610806565b34801561043557600080fd5b5061030f610444366004611c1f565b610aea565b61030f610457366004611c91565b610afb565b6000610469826004611d7c565b8351101561047657600080fd5b610481602083611d7c565b838101519092506001600160e01b03191690505b92915050565b805160208201f35b6040516001600160a01b038581166024830152848116604483015283166064820152608481018290526000908190819061016790630aed65f560e11b9060a4015b60408051601f198184030181529181526020820180516001600160e01b03166001600160e01b03199094169390931790925290516105229190611d94565b6000604051808303816000865af19150503d806000811461055f576040519150601f19603f3d011682016040523d82523d6000602084013e610564565b606091505b509150915081610575576015610589565b808060200190518101906105899190611db0565b60030b979650505050505050565b6060600860030180546105a990611dd3565b80601f01602080910402602001604051908101604052809291908181526020018280546105d590611dd3565b80156106225780601f106105f757610100808354040283529160200191610622565b820191906000526020600020905b81548152906001019060200180831161060557829003601f168201915b5050505050905090565b6008546001600160a01b031633811461064457600080fd5b506008600101546040516001600160a01b03909116904780156108fc02916000818181858888f19350505050158015610681573d6000803e3d6000fd5b50565b6000806101676001600160a01b031663618dc65e60e01b85856040516024016106ae929190611e0e565b60408051601f198184030181529181526020820180516001600160e01b03166001600160e01b03199094169390931790925290516106ec9190611d94565b6000604051808303816000865af19150503d8060008114610729576040519150601f19603f3d011682016040523d82523d6000602084013e61072e565b606091505b50915091507f4af4780e06fe8cb9df64b0794fa6f01399af979175bb988e35e0e57e594567bc8282604051610764929190611e38565b60405180910390a150505050565b6008546001600160a01b031633811461078a57600080fd5b506001600160e01b03198216600090815260208190526040902080546001600160a01b0319166001600160a01b0383161790555050565b6040516001600160a01b038581166024830152848116604483015283166064820152608481018290526000908190819061016790639b23d3d960e01b9060a4016104e4565b8051600880546001600160a01b03199081166001600160a01b039384161782556020808501516009805484169186169190911790556040850151600a8054909316941693909317905560608301518051849361086792600b929101906114fd565b50608082015160048201805460a085015160c086015168ffffffffffffffffff1990921693151568ffffffffffffffff0019169390931761010067ffffffffffffffff94851681029190911770ffffffffffffffff00000000000000000019166901000000000000000000949092169390930217905560e08301516005830180546001600160a01b03199081166001600160a01b03938416179091559184015160068401805490931691161790556101208201516007820155610140820151805161093c916008840191602090910190611581565b506101608201516009820180546101808501516001600160a01b03166101000274ffffffffffffffffffffffffffffffffffffffff00199315159390931674ffffffffffffffffffffffffffffffffffffffffff19909116179190911790556101a0820151600a8201556101c0820151600b8201556101e0820151600c82015561020082015180516109d891600d840191602090910190611581565b5061022082015180516109f591600e840191602090910190611581565b50506006805467ffffffffffffffff191690555060a081015160c0820151600091610a1f91611e53565b60070b1215610a965760405162461bcd60e51b815260206004820152603760248201527f5f636f6e6669672e656e6453657269616c4e756d626572202d205f636f6e666960448201527f672e737461727453657269616c4e756d626572203e203000000000000000000060648201526084016101a8565b60a081015160c0820151610aab906001611ea5565b610ab59190611e53565b6006805467ffffffffffffffff92909216600160401b026fffffffffffffffff00000000000000001990921691909117905550565b610af6600b83836115d6565b505050565b60105460005b81811015610ca957600080600880018381548110610b2157610b21611ef6565b6000918252602090912001546040516001600160a01b0390911690631cae3cbd60e31b90610b53908890602401611f0c565b60408051601f198184030181529181526020820180516001600160e01b03166001600160e01b0319909416939093179092529051610b919190611d94565b600060405180830381855af49150503d8060008114610bcc576040519150601f19603f3d011682016040523d82523d6000602084013e610bd1565b606091505b509150915081610c345760405162461bcd60e51b815260206004820152602860248201527f412076616c69646174696f6e20776173206e6f74207375636365737366756c6c6044820152671e4818d85b1b195960c21b60648201526084016101a8565b80806020019051810190610c489190611f71565b610c945760405162461bcd60e51b815260206004820152601f60248201527f412076616c69646174696f6e20776173206e6f74207375636365737366756c0060448201526064016101a8565b50508080610ca190611f8e565b915050610b01565b50610cb382611195565b6040805160018082528183019092526000916020808301908036833701905050905060008060086005015460408051600481526024810182526020810180516001600160e01b03166365930fb760e01b17905290516001600160a01b0390921691610d1e9190611d94565b600060405180830381855af49150503d8060008114610d59576040519150601f19603f3d011682016040523d82523d6000602084013e610d5e565b606091505b509150915081610dd65760405162461bcd60e51b815260206004820152603a60248201527f41204953657269616c4e756d62657247656e657261746f724d6f64756c65207760448201527f6173206e6f74207375636365737366756c6c792063616c6c656400000000000060648201526084016101a8565b80806020019051810190610dea9190611fa9565b83600081518110610dfd57610dfd611ef6565b60079290920b60209283029190910190910152600654610e2f90600160801b900467ffffffffffffffff166001611fc6565b600680547fffffffffffffffff0000000000000000ffffffffffffffffffffffffffffffff16600160801b67ffffffffffffffff938416021790819055610e8091600191600160401b900416611ff2565b6006805467ffffffffffffffff92909216600160401b026fffffffffffffffff000000000000000019909216919091179055610ebc3384611299565b5060005b8481101561101d57600080600880018381548110610ee057610ee0611ef6565b6000918252602090912001546040516001600160a01b039091169063dc65efa160e01b90610f12908b90602401611f0c565b60408051601f198184030181529181526020820180516001600160e01b03166001600160e01b0319909416939093179092529051610f509190611d94565b600060405180830381855af49150503d8060008114610f8b576040519150601f19603f3d011682016040523d82523d6000602084013e610f90565b606091505b5091509150816110085760405162461bcd60e51b815260206004820152603260248201527f4120686f6f6b4166746572446973747269627574656420776173206e6f74207360448201527f75636365737366756c6c792063616c6c6564000000000000000000000000000060648201526084016101a8565b5050808061101590611f8e565b915050610ec0565b5060008060086005015485516001600160a01b039091169063511a7dfd60e11b90879060009061104f5761104f611ef6565b6020026020010151604051602401611070919060079190910b815260200190565b60408051601f198184030181529181526020820180516001600160e01b03166001600160e01b03199094169390931790925290516110ae9190611d94565b600060405180830381855af49150503d80600081146110e9576040519150601f19603f3d011682016040523d82523d6000602084013e6110ee565b606091505b50915091508161118c5760405162461bcd60e51b815260206004820152604f60248201527f41204953657269616c4e756d62657247656e657261746f724d6f64756c652e6860448201527f6f6f6b4166746572446973747269627574656420776173206e6f74207375636360648201527f65737366756c6c792063616c6c65640000000000000000000000000000000000608482015260a4016101a8565b50505050505050565b60115460ff166111a25750565b60115461010090046001600160a01b03166111bc57600080fd5b6000806008600901546040516101009091046001600160a01b03169063808598bf60e01b906111ef908690602401611f0c565b60408051601f198184030181529181526020820180516001600160e01b03166001600160e01b031990941693909317909252905161122d9190611d94565b600060405180830381855af49150503d8060008114611268576040519150601f19603f3d011682016040523d82523d6000602084013e61126d565b606091505b50915091508161127c57600080fd5b808060200190518101906112909190611f71565b610af657600080fd5b600c5460009060ff166112b7576112b083836112e5565b9050610495565b6112b083836000815181106112ce576112ce611ef6565b602002602001015167ffffffffffffffff16611440565b60408051600180825281830190925260009182919060208083019080368337019050509050308160008151811061131e5761131e611ef6565b6001600160a01b039290921660209283029190910190910152604080516001808252818301909252600091816020016020820280368337019050509050848160008151811061136f5761136f611ef6565b6001600160a01b039283166020918202929092010152600e5460009161139891168484886114cd565b90507f90a5cf4cffe88b4edbb041cfc7a8a812c48a5ec30b84640fb37690875168e3aa816040516113cb91815260200190565b60405180910390a160168114611434576040517f526573706f6e736520636f6465207761733a200000000000000000000000000060208201526033810182905260530160408051601f198184030181529082905262461bcd60e51b82526101a891600401611741565b50600195945050505050565b60006008600601546001600160a01b03166323b872dd60086002015460405160e083901b6001600160e01b03191681526001600160a01b039182166004820152908616602482015260448101859052606401600060405180830381600087803b1580156114ac57600080fd5b505af11580156114c0573d6000803e3d6000fd5b5060019695505050505050565b60008060006101676001600160a01b0316632c4ba19160e01b888888886040516024016104e4949392919061205f565b82805461150990611dd3565b90600052602060002090601f01602090048101928261152b5760008555611571565b82601f1061154457805160ff1916838001178555611571565b82800160010185558215611571579182015b82811115611571578251825591602001919060010190611556565b5061157d92915061164a565b5090565b828054828255906000526020600020908101928215611571579160200282015b8281111561157157825182546001600160a01b0319166001600160a01b039091161782556020909201916001909101906115a1565b8280546115e290611dd3565b90600052602060002090601f0160209004810192826116045760008555611571565b82601f1061161d5782800160ff19823516178555611571565b82800160010185558215611571579182015b8281111561157157823582559160200191906001019061162f565b5b8082111561157d576000815560010161164b565b8183823760009101908152919050565b6001600160a01b038116811461068157600080fd5b803561168f8161166f565b919050565b600080600080608085870312156116aa57600080fd5b84356116b58161166f565b935060208501356116c58161166f565b925060408501356116d58161166f565b9396929550929360600135925050565b60005b838110156117005781810151838201526020016116e8565b8381111561170f576000848401525b50505050565b6000815180845261172d8160208601602086016116e5565b601f01601f19169290920160200192915050565b6020815260006117546020830184611715565b9392505050565b634e487b7160e01b600052604160045260246000fd5b604051610240810167ffffffffffffffff811182821017156117955761179561175b565b60405290565b6040805190810167ffffffffffffffff811182821017156117955761179561175b565b604051601f8201601f1916810167ffffffffffffffff811182821017156117e7576117e761175b565b604052919050565b600067ffffffffffffffff8311156118095761180961175b565b61181c601f8401601f19166020016117be565b905082815283838301111561183057600080fd5b828260208301376000602084830101529392505050565b6000806040838503121561185a57600080fd5b82356118658161166f565b9150602083013567ffffffffffffffff81111561188157600080fd5b8301601f8101851361189257600080fd5b6118a1858235602084016117ef565b9150509250929050565b80356001600160e01b03198116811461168f57600080fd5b600080604083850312156118d657600080fd5b6118df836118ab565b915060208301356118ef8161166f565b809150509250929050565b60006020828403121561190c57600080fd5b611754826118ab565b600082601f83011261192657600080fd5b611754838335602085016117ef565b801515811461068157600080fd5b803561168f81611935565b8060070b811461068157600080fd5b803561168f8161194e565b600067ffffffffffffffff8211156119825761198261175b565b5060051b60200190565b600082601f83011261199d57600080fd5b813560206119b26119ad83611968565b6117be565b82815260059290921b840181019181810190868411156119d157600080fd5b8286015b848110156119f55780356119e88161166f565b83529183019183016119d5565b509695505050505050565b600082601f830112611a1157600080fd5b81356020611a216119ad83611968565b82815260059290921b84018101918181019086841115611a4057600080fd5b8286015b848110156119f5578035611a578161166f565b8352918301918301611a44565b600060208284031215611a7657600080fd5b813567ffffffffffffffff80821115611a8e57600080fd5b908301906102408286031215611aa357600080fd5b611aab611771565b611ab483611684565b8152611ac260208401611684565b6020820152611ad360408401611684565b6040820152606083013582811115611aea57600080fd5b611af687828601611915565b606083015250611b0860808401611943565b6080820152611b1960a0840161195d565b60a0820152611b2a60c0840161195d565b60c0820152611b3b60e08401611684565b60e0820152610100611b4e818501611684565b9082015261012083810135908201526101408084013583811115611b7157600080fd5b611b7d8882870161198c565b828401525050610160611b91818501611943565b90820152610180611ba3848201611684565b908201526101a083810135908201526101c080840135908201526101e080840135908201526102008084013583811115611bdc57600080fd5b611be888828701611a00565b8284015250506102208084013583811115611c0257600080fd5b611c0e88828701611a00565b918301919091525095945050505050565b60008060208385031215611c3257600080fd5b823567ffffffffffffffff80821115611c4a57600080fd5b818501915085601f830112611c5e57600080fd5b813581811115611c6d57600080fd5b866020828501011115611c7f57600080fd5b60209290920196919550909350505050565b60006020808385031215611ca457600080fd5b823567ffffffffffffffff80821115611cbc57600080fd5b9084019060408287031215611cd057600080fd5b611cd861179b565b823582811115611ce757600080fd5b83019150601f82018713611cfa57600080fd5b8135611d086119ad82611968565b81815260059190911b83018501908581019089831115611d2757600080fd5b938601935b82851015611d4557843582529386019390860190611d2c565b835250611d559050838501611684565b848201528094505050505092915050565b634e487b7160e01b600052601160045260246000fd5b60008219821115611d8f57611d8f611d66565b500190565b60008251611da68184602087016116e5565b9190910192915050565b600060208284031215611dc257600080fd5b81518060030b811461175457600080fd5b600181811c90821680611de757607f821691505b60208210811415611e0857634e487b7160e01b600052602260045260246000fd5b50919050565b6001600160a01b0383168152604060208201526000611e306040830184611715565b949350505050565b8215158152604060208201526000611e306040830184611715565b60008160070b8360070b6000811281677fffffffffffffff1901831281151615611e7f57611e7f611d66565b81677fffffffffffffff018313811615611e9b57611e9b611d66565b5090039392505050565b60008160070b8360070b6000821282677fffffffffffffff03821381151615611ed057611ed0611d66565b82677fffffffffffffff19038212811615611eed57611eed611d66565b50019392505050565b634e487b7160e01b600052603260045260246000fd5b6020808252825160408383015280516060840181905260009291820190839060808601905b80831015611f515783518252928401926001929092019190840190611f31565b506001600160a01b03848801511660408701528094505050505092915050565b600060208284031215611f8357600080fd5b815161175481611935565b6000600019821415611fa257611fa2611d66565b5060010190565b600060208284031215611fbb57600080fd5b81516117548161194e565b600067ffffffffffffffff808316818516808303821115611fe957611fe9611d66565b01949350505050565b600067ffffffffffffffff8381169083168181101561201357612013611d66565b039392505050565b600081518084526020808501945080840160005b838110156120545781516001600160a01b03168752958201959082019060010161202f565b509495945050505050565b6001600160a01b038516815260006020608081840152612082608084018761201b565b8381036040850152612094818761201b565b8481036060860152855180825283870192509083019060005b818110156120cc57835160070b835292840192918401916001016120ad565b5090999850505050505050505056fea264697066735822122007b2a4191cbb22da5d2c25686d6da8844526b67f3aff362999adaec35d31e9bd64736f6c63430008090033",
  "linkReferences": {},
  "deployedLinkReferences": {}
}