{
  "_format": "hh-sol-artifact-1",
  "contractName": "MintLimitGateContract",
  "sourceName": "contracts/gates/MintLimitGate.sol",
  "abi": [
    {
      "inputs": [],
      "name": "getConfigMintLimitPerWallet",
      "outputs": [
        {
          "internalType": "uint256",
          "name": "",
          "type": "uint256"
        }
      ],
      "stateMutability": "view",
      "type": "function"
    },
    {
      "inputs": [
        {
          "components": [
            {
              "internalType": "bytes32[]",
              "name": "merkleProof",
              "type": "bytes32[]"
            },
            {
              "internalType": "contract IERC20",
              "name": "paymentToken",
              "type": "address"
            }
          ],
          "internalType": "struct GetNFTParams",
          "name": "params",
          "type": "tuple"
        }
      ],
      "name": "hookAfterDistributed",
      "outputs": [],
      "stateMutability": "payable",
      "type": "function"
    },
    {
      "inputs": [
        {
          "internalType": "uint256",
          "name": "newMintLimitPerWallet",
          "type": "uint256"
        }
      ],
      "name": "setConfigMintLimitPerWallet",
      "outputs": [],
      "stateMutability": "nonpayable",
      "type": "function"
    },
    {
      "inputs": [
        {
          "components": [
            {
              "internalType": "bytes32[]",
              "name": "merkleProof",
              "type": "bytes32[]"
            },
            {
              "internalType": "contract IERC20",
              "name": "paymentToken",
              "type": "address"
            }
          ],
          "internalType": "struct GetNFTParams",
          "name": "params",
          "type": "tuple"
        }
      ],
      "name": "validate",
      "outputs": [
        {
          "internalType": "bool",
          "name": "result",
          "type": "bool"
        }
      ],
      "stateMutability": "payable",
      "type": "function"
    }
  ],
  "bytecode": "0x608060405234801561001057600080fd5b50610338806100206000396000f3fe60806040526004361061003f5760003560e01c806303188e8714610044578063226cd89314610067578063dc65efa114610089578063e571e5e81461009c575b600080fd5b34801561005057600080fd5b506014546040519081526020015b60405180910390f35b34801561007357600080fd5b50610087610082366004610146565b6100bf565b005b6100876100973660046101f8565b6100ea565b6100af6100aa3660046101f8565b610119565b604051901515815260200161005e565b60085473ffffffffffffffffffffffffffffffffffffffff163381146100e457600080fd5b50601455565b33600090815260016020819052604090912054610106916102dc565b3360009081526001602052604090205550565b60006008600c0154336000908152600160205260409020541061013e57506000919050565b506001919050565b60006020828403121561015857600080fd5b5035919050565b634e487b7160e01b600052604160045260246000fd5b6040805190810167ffffffffffffffff811182821017156101985761019861015f565b60405290565b604051601f8201601f1916810167ffffffffffffffff811182821017156101c7576101c761015f565b604052919050565b803573ffffffffffffffffffffffffffffffffffffffff811681146101f357600080fd5b919050565b6000602080838503121561020b57600080fd5b823567ffffffffffffffff8082111561022357600080fd5b908401906040828703121561023757600080fd5b61023f610175565b82358281111561024e57600080fd5b8301601f8101881361025f57600080fd5b8035838111156102715761027161015f565b8060051b935061028286850161019e565b818152938201860193868101908a86111561029c57600080fd5b928701925b858410156102ba578335825292870192908701906102a1565b8452506102cb9150508385016101cf565b848201528094505050505092915050565b600082198211156102fd57634e487b7160e01b600052601160045260246000fd5b50019056fea26469706673582212200239b1dd8a0b1ec84258dd44627d03fc4d12a12ea8125965fcbc1de48e03e06364736f6c63430008090033",
  "linkReferences": {},
  "deployedLinkReferences": {}
}